{
  "contractName": "ItemManager",
  "abi": [
    {
      "anonymous": false,
      "inputs": [
        {
          "indexed": false,
          "internalType": "uint256",
          "name": "_itemIndex",
          "type": "uint256"
        },
        {
          "indexed": false,
          "internalType": "uint256",
          "name": "_step",
          "type": "uint256"
        },
        {
          "indexed": false,
          "internalType": "address",
          "name": "_address",
          "type": "address"
        }
      ],
      "name": "SupplyChainStep",
      "type": "event"
    },
    {
      "inputs": [],
      "name": "_owner",
      "outputs": [
        {
          "internalType": "address",
          "name": "",
          "type": "address"
        }
      ],
      "stateMutability": "view",
      "type": "function",
      "constant": true
    },
    {
      "inputs": [],
      "name": "isOwner",
      "outputs": [
        {
          "internalType": "bool",
          "name": "",
          "type": "bool"
        }
      ],
      "stateMutability": "view",
      "type": "function",
      "constant": true
    },
    {
      "inputs": [
        {
          "internalType": "uint256",
          "name": "",
          "type": "uint256"
        }
      ],
      "name": "items",
      "outputs": [
        {
          "internalType": "contract Item",
          "name": "_item",
          "type": "address"
        },
        {
          "internalType": "enum ItemManager.SupplyChainSteps",
          "name": "_step",
          "type": "uint8"
        },
        {
          "internalType": "string",
          "name": "_identifier",
          "type": "string"
        }
      ],
      "stateMutability": "view",
      "type": "function",
      "constant": true
    },
    {
      "inputs": [
        {
          "internalType": "string",
          "name": "_identifier",
          "type": "string"
        },
        {
          "internalType": "uint256",
          "name": "_priceInWei",
          "type": "uint256"
        }
      ],
      "name": "createItem",
      "outputs": [],
      "stateMutability": "nonpayable",
      "type": "function"
    },
    {
      "inputs": [
        {
          "internalType": "uint256",
          "name": "_index",
          "type": "uint256"
        }
      ],
      "name": "triggerPayment",
      "outputs": [],
      "stateMutability": "payable",
      "type": "function",
      "payable": true
    },
    {
      "inputs": [
        {
          "internalType": "uint256",
          "name": "_index",
          "type": "uint256"
        }
      ],
      "name": "triggerDelivery",
      "outputs": [],
      "stateMutability": "nonpayable",
      "type": "function"
    }
  ],
  "bytecode": "0x608060405234801561001057600080fd5b50336000806101000a81548173ffffffffffffffffffffffffffffffffffffffff021916908373ffffffffffffffffffffffffffffffffffffffff160217905550611a16806100606000396000f3fe6080604052600436106200005c5760003560e01c8063800fb83f14620000615780638c55174214620000815780638f32d59b14620000af578063b2bdfa7b14620000df578063bfb231d2146200010f578063cd31831e1462000155575b600080fd5b6200007f600480360381019062000079919062000a15565b62000183565b005b3480156200008e57600080fd5b50620000ad6004803603810190620000a7919062000ba9565b62000432565b005b348015620000bc57600080fd5b50620000c7620005d7565b604051620000d6919062000c2c565b60405180910390f35b348015620000ec57600080fd5b50620000f76200062e565b60405162000106919062000c8e565b60405180910390f35b3480156200011c57600080fd5b506200013b600480360381019062000135919062000a15565b62000652565b6040516200014c9392919062000e29565b60405180910390f35b3480156200016257600080fd5b506200018160048036038101906200017b919062000a15565b62000739565b005b60006001600083815260200190815260200160002060000160009054906101000a900473ffffffffffffffffffffffffffffffffffffffff1690503373ffffffffffffffffffffffffffffffffffffffff168173ffffffffffffffffffffffffffffffffffffffff16146200022f576040517f08c379a0000000000000000000000000000000000000000000000000000000008152600401620002269062000ee3565b60405180910390fd5b348173ffffffffffffffffffffffffffffffffffffffff16633c8da5886040518163ffffffff1660e01b8152600401602060405180830381865afa1580156200027c573d6000803e3d6000fd5b505050506040513d601f19601f82011682018060405250810190620002a2919062000f1c565b14620002e5576040517f08c379a0000000000000000000000000000000000000000000000000000000008152600401620002dc9062000f9e565b60405180910390fd5b60006002811115620002fc57620002fb62000d16565b5b6001600084815260200190815260200160002060000160149054906101000a900460ff16600281111562000335576200033462000d16565b5b1462000378576040517f08c379a00000000000000000000000000000000000000000000000000000000081526004016200036f9062001036565b60405180910390fd5b600180600084815260200190815260200160002060000160146101000a81548160ff02191690836002811115620003b457620003b362000d16565b5b02179055507fa4035636e99f06b7651a604c1019fa4e8779fe68ef27eeb74dff2de348f6199b826001600085815260200190815260200160002060000160149054906101000a900460ff16600281111562000414576200041362000d16565b5b83604051620004269392919062001069565b60405180910390a15050565b60003082600254604051620004479062000908565b6200045593929190620010df565b604051809103906000f08015801562000472573d6000803e3d6000fd5b5090508060016000600254815260200190815260200160002060000160006101000a81548173ffffffffffffffffffffffffffffffffffffffff021916908373ffffffffffffffffffffffffffffffffffffffff160217905550600060016000600254815260200190815260200160002060000160146101000a81548160ff021916908360028111156200050b576200050a62000d16565b5b02179055508260016000600254815260200190815260200160002060010190805190602001906200053e92919062000916565b507fa4035636e99f06b7651a604c1019fa4e8779fe68ef27eeb74dff2de348f6199b60025460016000600254815260200190815260200160002060000160149054906101000a900460ff1660028111156200059e576200059d62000d16565b5b83604051620005b09392919062001069565b60405180910390a160026000815480929190620005cd906200114b565b9190505550505050565b60008060009054906101000a900473ffffffffffffffffffffffffffffffffffffffff1673ffffffffffffffffffffffffffffffffffffffff163373ffffffffffffffffffffffffffffffffffffffff1614905090565b60008054906101000a900473ffffffffffffffffffffffffffffffffffffffff1681565b60016020528060005260406000206000915090508060000160009054906101000a900473ffffffffffffffffffffffffffffffffffffffff16908060000160149054906101000a900460ff1690806001018054620006b090620011c7565b80601f0160208091040260200160405190810160405280929190818152602001828054620006de90620011c7565b80156200072f5780601f1062000703576101008083540402835291602001916200072f565b820191906000526020600020905b8154815290600101906020018083116200071157829003601f168201915b5050505050905083565b62000743620005d7565b62000785576040517f08c379a00000000000000000000000000000000000000000000000000000000081526004016200077c906200124c565b60405180910390fd5b600160028111156200079c576200079b62000d16565b5b6001600083815260200190815260200160002060000160149054906101000a900460ff166002811115620007d557620007d462000d16565b5b1462000818576040517f08c379a00000000000000000000000000000000000000000000000000000000081526004016200080f9062001036565b60405180910390fd5b60026001600083815260200190815260200160002060000160146101000a81548160ff0219169083600281111562000855576200085462000d16565b5b02179055507fa4035636e99f06b7651a604c1019fa4e8779fe68ef27eeb74dff2de348f6199b816001600084815260200190815260200160002060000160149054906101000a900460ff166002811115620008b557620008b462000d16565b5b6001600085815260200190815260200160002060000160009054906101000a900473ffffffffffffffffffffffffffffffffffffffff16604051620008fd9392919062001069565b60405180910390a150565b610772806200126f83390190565b8280546200092490620011c7565b90600052602060002090601f01602090048101928262000948576000855562000994565b82601f106200096357805160ff191683800117855562000994565b8280016001018555821562000994579182015b828111156200099357825182559160200191906001019062000976565b5b509050620009a39190620009a7565b5090565b5b80821115620009c2576000816000905550600101620009a8565b5090565b6000604051905090565b600080fd5b600080fd5b6000819050919050565b620009ef81620009da565b8114620009fb57600080fd5b50565b60008135905062000a0f81620009e4565b92915050565b60006020828403121562000a2e5762000a2d620009d0565b5b600062000a3e84828501620009fe565b91505092915050565b600080fd5b600080fd5b6000601f19601f8301169050919050565b7f4e487b7100000000000000000000000000000000000000000000000000000000600052604160045260246000fd5b62000a9c8262000a51565b810181811067ffffffffffffffff8211171562000abe5762000abd62000a62565b5b80604052505050565b600062000ad3620009c6565b905062000ae1828262000a91565b919050565b600067ffffffffffffffff82111562000b045762000b0362000a62565b5b62000b0f8262000a51565b9050602081019050919050565b82818337600083830152505050565b600062000b4262000b3c8462000ae6565b62000ac7565b90508281526020810184848401111562000b615762000b6062000a4c565b5b62000b6e84828562000b1c565b509392505050565b600082601f83011262000b8e5762000b8d62000a47565b5b813562000ba084826020860162000b2b565b91505092915050565b6000806040838503121562000bc35762000bc2620009d0565b5b600083013567ffffffffffffffff81111562000be45762000be3620009d5565b5b62000bf28582860162000b76565b925050602062000c0585828601620009fe565b9150509250929050565b60008115159050919050565b62000c268162000c0f565b82525050565b600060208201905062000c43600083018462000c1b565b92915050565b600073ffffffffffffffffffffffffffffffffffffffff82169050919050565b600062000c768262000c49565b9050919050565b62000c888162000c69565b82525050565b600060208201905062000ca5600083018462000c7d565b92915050565b6000819050919050565b600062000cd662000cd062000cca8462000c49565b62000cab565b62000c49565b9050919050565b600062000cea8262000cb5565b9050919050565b600062000cfe8262000cdd565b9050919050565b62000d108162000cf1565b82525050565b7f4e487b7100000000000000000000000000000000000000000000000000000000600052602160045260246000fd5b6003811062000d595762000d5862000d16565b5b50565b600081905062000d6c8262000d45565b919050565b600062000d7e8262000d5c565b9050919050565b62000d908162000d71565b82525050565b600081519050919050565b600082825260208201905092915050565b60005b8381101562000dd257808201518184015260208101905062000db5565b8381111562000de2576000848401525b50505050565b600062000df58262000d96565b62000e01818562000da1565b935062000e1381856020860162000db2565b62000e1e8162000a51565b840191505092915050565b600060608201905062000e40600083018662000d05565b62000e4f602083018562000d85565b818103604083015262000e63818462000de8565b9050949350505050565b7f4f6e6c79206974656d732061726520616c6c6f77656420746f2075706461746560008201527f207468656d73656c766573000000000000000000000000000000000000000000602082015250565b600062000ecb602b8362000da1565b915062000ed88262000e6d565b604082019050919050565b6000602082019050818103600083015262000efe8162000ebc565b9050919050565b60008151905062000f1681620009e4565b92915050565b60006020828403121562000f355762000f34620009d0565b5b600062000f458482850162000f05565b91505092915050565b7f4e6f742066756c6c792070616964207965740000000000000000000000000000600082015250565b600062000f8660128362000da1565b915062000f938262000f4e565b602082019050919050565b6000602082019050818103600083015262000fb98162000f77565b9050919050565b7f4974656d206973206675727468657220696e2074686520737570706c7920636860008201527f61696e0000000000000000000000000000000000000000000000000000000000602082015250565b60006200101e60238362000da1565b91506200102b8262000fc0565b604082019050919050565b6000602082019050818103600083015262001051816200100f565b9050919050565b6200106381620009da565b82525050565b600060608201905062001080600083018662001058565b6200108f602083018562001058565b6200109e604083018462000c7d565b949350505050565b6000620010b38262000cb5565b9050919050565b6000620010c782620010a6565b9050919050565b620010d981620010ba565b82525050565b6000606082019050620010f66000830186620010ce565b62001105602083018562001058565b62001114604083018462001058565b949350505050565b7f4e487b7100000000000000000000000000000000000000000000000000000000600052601160045260246000fd5b60006200115882620009da565b91507fffffffffffffffffffffffffffffffffffffffffffffffffffffffffffffffff82036200118d576200118c6200111c565b5b600182019050919050565b7f4e487b7100000000000000000000000000000000000000000000000000000000600052602260045260246000fd5b60006002820490506001821680620011e057607f821691505b602082108103620011f657620011f562001198565b5b50919050565b7f4f776e61626c653a2063616c6c6572206973206e6f7420746865206f776e6572600082015250565b60006200123460208362000da1565b91506200124182620011fc565b602082019050919050565b60006020820190508181036000830152620012678162001225565b905091905056fe608060405234801561001057600080fd5b5060405161077238038061077283398181016040528101906100329190610134565b816000819055508060028190555082600360006101000a81548173ffffffffffffffffffffffffffffffffffffffff021916908373ffffffffffffffffffffffffffffffffffffffff160217905550505050610187565b600080fd5b600073ffffffffffffffffffffffffffffffffffffffff82169050919050565b60006100b98261008e565b9050919050565b60006100cb826100ae565b9050919050565b6100db816100c0565b81146100e657600080fd5b50565b6000815190506100f8816100d2565b92915050565b6000819050919050565b610111816100fe565b811461011c57600080fd5b50565b60008151905061012e81610108565b92915050565b60008060006060848603121561014d5761014c610089565b5b600061015b868287016100e9565b935050602061016c8682870161011f565b925050604061017d8682870161011f565b9150509250925092565b6105dc806101966000396000f3fe6080604052600436106100385760003560e01c80632986c0e51461024e5780633c8da5881461027957806383d12eef146102a457610240565b36610240576000543414610081576040517f08c379a000000000000000000000000000000000000000000000000000000000815260040161007890610364565b60405180910390fd5b6000600154146100c6576040517f08c379a00000000000000000000000000000000000000000000000000000000081526004016100bd906103d0565b60405180910390fd5b34600160008282546100d89190610429565b925050819055506000600360009054906101000a900473ffffffffffffffffffffffffffffffffffffffff1673ffffffffffffffffffffffffffffffffffffffff163460025460405160240161012e919061048e565b6040516020818303038152906040527f800fb83f000000000000000000000000000000000000000000000000000000007bffffffffffffffffffffffffffffffffffffffffffffffffffffffff19166020820180517bffffffffffffffffffffffffffffffffffffffffffffffffffffffff83818316178352505050506040516101b89190610523565b60006040518083038185875af1925050503d80600081146101f5576040519150601f19603f3d011682016040523d82523d6000602084013e6101fa565b606091505b505090508061023e576040517f08c379a000000000000000000000000000000000000000000000000000000000815260040161023590610586565b60405180910390fd5b005b34801561024c57600080fd5b005b34801561025a57600080fd5b506102636102cf565b604051610270919061048e565b60405180910390f35b34801561028557600080fd5b5061028e6102d5565b60405161029b919061048e565b60405180910390f35b3480156102b057600080fd5b506102b96102db565b6040516102c6919061048e565b60405180910390f35b60025481565b60005481565b60015481565b600082825260208201905092915050565b7f576520646f6e277420737570706f7274207061727469616c207061796d656e7460008201527f7300000000000000000000000000000000000000000000000000000000000000602082015250565b600061034e6021836102e1565b9150610359826102f2565b604082019050919050565b6000602082019050818103600083015261037d81610341565b9050919050565b7f4974656d20697320616c72656164792070616964210000000000000000000000600082015250565b60006103ba6015836102e1565b91506103c582610384565b602082019050919050565b600060208201905081810360008301526103e9816103ad565b9050919050565b6000819050919050565b7f4e487b7100000000000000000000000000000000000000000000000000000000600052601160045260246000fd5b6000610434826103f0565b915061043f836103f0565b9250827fffffffffffffffffffffffffffffffffffffffffffffffffffffffffffffffff03821115610474576104736103fa565b5b828201905092915050565b610488816103f0565b82525050565b60006020820190506104a3600083018461047f565b92915050565b600081519050919050565b600081905092915050565b60005b838110156104dd5780820151818401526020810190506104c2565b838111156104ec576000848401525b50505050565b60006104fd826104a9565b61050781856104b4565b93506105178185602086016104bf565b80840191505092915050565b600061052f82846104f2565b915081905092915050565b7f44656c697665727920646964206e6f7420776f726b0000000000000000000000600082015250565b60006105706015836102e1565b915061057b8261053a565b602082019050919050565b6000602082019050818103600083015261059f81610563565b905091905056fea2646970667358221220cd7545a8cf9b0bea18e8f19ba1d4772b0be49fc97e80d5ea76aace6925238cee64736f6c634300080d0033a26469706673582212203b0b4af65cea81f3e49012fd5ea3d4d1121a041c12a73fa99a1a9bb5674f563664736f6c634300080d0033",
  "immutableReferences": {},
  "source": "pragma solidity ^0.8.12;\r\n\r\nimport \"./Item.sol\";\r\nimport \"./Ownable.sol\";\r\n\r\ncontract ItemManager is Ownable {\r\n\r\n    struct S_Item {\r\n        Item _item;\r\n        ItemManager.SupplyChainSteps _step;\r\n        string _identifier;\r\n    }\r\n    mapping(uint => S_Item) public items;\r\n    uint index;\r\n\r\n    enum SupplyChainSteps {Created, Paid, Delivered}\r\n\r\n\r\n    event SupplyChainStep(uint _itemIndex, uint _step, address _address);\r\n\r\n\r\n    function createItem(string memory _identifier, uint _priceInWei) public{\r\n\r\n        Item item = new Item(this, _priceInWei, index);\r\n\r\n        items[index]._item = item;\r\n\r\n        items[index]._step = SupplyChainSteps.Created;\r\n        items[index]._identifier = _identifier;\r\n\r\n        emit SupplyChainStep(index, uint(items[index]._step), address(item));\r\n\r\n        index++;\r\n    }\r\n\r\n    function triggerPayment(uint _index) public payable {\r\n\r\n        Item item = items[_index]._item;\r\n\r\n        require(address(item) == msg.sender, \"Only items are allowed to update themselves\");\r\n\r\n        require(item.priceInWei() == msg.value, \"Not fully paid yet\");\r\n\r\n        require(items[_index]._step == SupplyChainSteps.Created, \"Item is further in the supply chain\");\r\n        items[_index]._step = SupplyChainSteps.Paid;\r\n        emit SupplyChainStep(_index, uint(items[_index]._step), address(item));\r\n    }\r\n\r\n    function triggerDelivery(uint _index) public onlyOwner {\r\n        require(items[_index]._step == SupplyChainSteps.Paid, \"Item is further in the supply chain\");\r\n        items[_index]._step = SupplyChainSteps.Delivered;\r\n\r\n        emit SupplyChainStep(_index, uint(items[_index]._step), address(items[_index]._item));\r\n\r\n    }\r\n}\r\n",
  "sourcePath": "/home/kamesh/Desktop/block chain/truffle/contracts/ItemManager.sol",
  "compiler": {
    "name": "solc",
    "version": "0.8.13+commit.abaa5c0e.Emscripten.clang"
  },
  "schemaVersion": "3.4.5",
  "updatedAt": "2022-04-19T03:41:07.139Z",
  "networkType": "ethereum",
  "devdoc": {
    "kind": "dev",
    "methods": {
      "isOwner()": {
        "details": "Returns true if the caller is the current owner."
      }
    },
    "version": 1
  },
  "userdoc": {
    "kind": "user",
    "methods": {},
    "version": 1
  }
}